{
  "contractName": "Etendering",
  "abi": [
    {
      "inputs": [
        {
          "internalType": "address",
          "name": "",
          "type": "address"
        }
      ],
      "name": "Companies",
      "outputs": [
        {
          "internalType": "uint256",
          "name": "id",
          "type": "uint256"
        },
        {
          "internalType": "address",
          "name": "add",
          "type": "address"
        },
        {
          "internalType": "string",
          "name": "name",
          "type": "string"
        },
        {
          "internalType": "string",
          "name": "location",
          "type": "string"
        },
        {
          "internalType": "string",
          "name": "email",
          "type": "string"
        },
        {
          "internalType": "string",
          "name": "businessType",
          "type": "string"
        },
        {
          "internalType": "string",
          "name": "tin",
          "type": "string"
        }
      ],
      "stateMutability": "view",
      "type": "function",
      "constant": true
    },
    {
      "inputs": [
        {
          "internalType": "uint256",
          "name": "",
          "type": "uint256"
        }
      ],
      "name": "Tenders",
      "outputs": [
        {
          "internalType": "uint256",
          "name": "id",
          "type": "uint256"
        },
        {
          "internalType": "uint256",
          "name": "openingDate",
          "type": "uint256"
        },
        {
          "internalType": "uint256",
          "name": "clossingDate",
          "type": "uint256"
        },
        {
          "internalType": "address",
          "name": "company_Address",
          "type": "address"
        },
        {
          "internalType": "string",
          "name": "title",
          "type": "string"
        },
        {
          "internalType": "string",
          "name": "description",
          "type": "string"
        },
        {
          "internalType": "string",
          "name": "status",
          "type": "string"
        },
        {
          "internalType": "string",
          "name": "link",
          "type": "string"
        }
      ],
      "stateMutability": "view",
      "type": "function",
      "constant": true
    },
    {
      "inputs": [
        {
          "internalType": "uint256",
          "name": "",
          "type": "uint256"
        }
      ],
      "name": "cids",
      "outputs": [
        {
          "internalType": "uint256",
          "name": "",
          "type": "uint256"
        }
      ],
      "stateMutability": "view",
      "type": "function",
      "constant": true
    },
    {
      "inputs": [],
      "name": "companies",
      "outputs": [
        {
          "internalType": "uint256",
          "name": "",
          "type": "uint256"
        }
      ],
      "stateMutability": "view",
      "type": "function",
      "constant": true
    },
    {
      "inputs": [],
      "name": "tenders",
      "outputs": [
        {
          "internalType": "uint256",
          "name": "",
          "type": "uint256"
        }
      ],
      "stateMutability": "view",
      "type": "function",
      "constant": true
    },
    {
      "inputs": [
        {
          "internalType": "uint256",
          "name": "",
          "type": "uint256"
        }
      ],
      "name": "tids",
      "outputs": [
        {
          "internalType": "uint256",
          "name": "",
          "type": "uint256"
        }
      ],
      "stateMutability": "view",
      "type": "function",
      "constant": true
    },
    {
      "inputs": [],
      "name": "countCompanies",
      "outputs": [
        {
          "internalType": "uint256",
          "name": "compamies",
          "type": "uint256"
        }
      ],
      "stateMutability": "view",
      "type": "function",
      "constant": true
    },
    {
      "inputs": [
        {
          "internalType": "string",
          "name": "cname",
          "type": "string"
        },
        {
          "internalType": "string",
          "name": "location",
          "type": "string"
        },
        {
          "internalType": "string",
          "name": "email",
          "type": "string"
        },
        {
          "internalType": "string",
          "name": "businessType",
          "type": "string"
        },
        {
          "internalType": "string",
          "name": "tin",
          "type": "string"
        }
      ],
      "name": "createCompany",
      "outputs": [],
      "stateMutability": "nonpayable",
      "type": "function"
    },
    {
      "inputs": [
        {
          "internalType": "address",
          "name": "_address",
          "type": "address"
        }
      ],
      "name": "getCompany",
      "outputs": [
        {
          "internalType": "string",
          "name": "name",
          "type": "string"
        },
        {
          "internalType": "address",
          "name": "_companyid",
          "type": "address"
        },
        {
          "internalType": "string",
          "name": "location",
          "type": "string"
        }
      ],
      "stateMutability": "view",
      "type": "function",
      "constant": true
    },
    {
      "inputs": [
        {
          "internalType": "string",
          "name": "title",
          "type": "string"
        },
        {
          "internalType": "string",
          "name": "description",
          "type": "string"
        },
        {
          "internalType": "uint256",
          "name": "openingdate",
          "type": "uint256"
        },
        {
          "internalType": "uint256",
          "name": "clossingdate",
          "type": "uint256"
        },
        {
          "internalType": "string",
          "name": "documents",
          "type": "string"
        }
      ],
      "name": "newTender",
      "outputs": [],
      "stateMutability": "nonpayable",
      "type": "function"
    },
    {
      "inputs": [
        {
          "internalType": "uint256",
          "name": "id",
          "type": "uint256"
        }
      ],
      "name": "getTender",
      "outputs": [
        {
          "internalType": "uint256",
          "name": "_tid",
          "type": "uint256"
        },
        {
          "internalType": "address",
          "name": "_manager",
          "type": "address"
        },
        {
          "internalType": "string",
          "name": "title",
          "type": "string"
        },
        {
          "internalType": "string",
          "name": "description",
          "type": "string"
        }
      ],
      "stateMutability": "view",
      "type": "function",
      "constant": true
    }
  ],
  "bytecode": "0x608060405234801561001057600080fd5b5061188d806100206000396000f3fe608060405234801561001057600080fd5b50600436106100a95760003560e01c80637e8c3fa2116100715780637e8c3fa2146101915780637f9362e4146101c857806383253a35146101e6578063a839291b14610204578063cfb87f6314610220578063e5e6f5f41461023c576100a9565b80630194ff8c146100ae5780630585c25e146100cc57806362bc56e6146100ff578063704fe710146101315780637ae19f0014610161575b600080fd5b6100b6610272565b6040516100c391906110e7565b60405180910390f35b6100e660048036038101906100e19190611142565b610278565b6040516100f69493929190611249565b60405180910390f35b610119600480360381019061011491906112c8565b61041f565b604051610128939291906112f5565b60405180910390f35b61014b60048036038101906101469190611142565b610631565b60405161015891906110e7565b60405180910390f35b61017b60048036038101906101769190611142565b610655565b60405161018891906110e7565b60405180910390f35b6101ab60048036038101906101a69190611142565b610679565b6040516101bf98979695949392919061133a565b60405180910390f35b6101d0610901565b6040516101dd91906110e7565b60405180910390f35b6101ee61090a565b6040516101fb91906110e7565b60405180910390f35b61021e60048036038101906102199190611509565b610910565b005b61023a600480360381019061023591906115d8565b610acb565b005b610256600480360381019061025191906112c8565b610d21565b60405161026997969594939291906116df565b60405180910390f35b60005481565b60008060608060066000868152602001908152602001600020600001546006600087815260200190815260200160002060030160009054906101000a900473ffffffffffffffffffffffffffffffffffffffff166006600088815260200190815260200160002060040160066000898152602001908152602001600020600501818054610304906117a0565b80601f0160208091040260200160405190810160405280929190818152602001828054610330906117a0565b801561037d5780601f106103525761010080835404028352916020019161037d565b820191906000526020600020905b81548152906001019060200180831161036057829003601f168201915b50505050509150808054610390906117a0565b80601f01602080910402602001604051908101604052809291908181526020018280546103bc906117a0565b80156104095780601f106103de57610100808354040283529160200191610409565b820191906000526020600020905b8154815290600101906020018083116103ec57829003601f168201915b5050505050905093509350935093509193509193565b606060006060600260008573ffffffffffffffffffffffffffffffffffffffff1673ffffffffffffffffffffffffffffffffffffffff168152602001908152602001600020600201600260008673ffffffffffffffffffffffffffffffffffffffff1673ffffffffffffffffffffffffffffffffffffffff16815260200190815260200160002060010160009054906101000a900473ffffffffffffffffffffffffffffffffffffffff16600260008773ffffffffffffffffffffffffffffffffffffffff1673ffffffffffffffffffffffffffffffffffffffff168152602001908152602001600020600301828054610518906117a0565b80601f0160208091040260200160405190810160405280929190818152602001828054610544906117a0565b80156105915780601f1061056657610100808354040283529160200191610591565b820191906000526020600020905b81548152906001019060200180831161057457829003601f168201915b505050505092508080546105a4906117a0565b80601f01602080910402602001604051908101604052809291908181526020018280546105d0906117a0565b801561061d5780601f106105f25761010080835404028352916020019161061d565b820191906000526020600020905b81548152906001019060200180831161060057829003601f168201915b505050505090509250925092509193909250565b6001818154811061064157600080fd5b906000526020600020016000915090505481565b6004818154811061066557600080fd5b906000526020600020016000915090505481565b60066020528060005260406000206000915090508060000154908060010154908060020154908060030160009054906101000a900473ffffffffffffffffffffffffffffffffffffffff16908060040180546106d4906117a0565b80601f0160208091040260200160405190810160405280929190818152602001828054610700906117a0565b801561074d5780601f106107225761010080835404028352916020019161074d565b820191906000526020600020905b81548152906001019060200180831161073057829003601f168201915b505050505090806005018054610762906117a0565b80601f016020809104026020016040519081016040528092919081815260200182805461078e906117a0565b80156107db5780601f106107b0576101008083540402835291602001916107db565b820191906000526020600020905b8154815290600101906020018083116107be57829003601f168201915b5050505050908060060180546107f0906117a0565b80601f016020809104026020016040519081016040528092919081815260200182805461081c906117a0565b80156108695780601f1061083e57610100808354040283529160200191610869565b820191906000526020600020905b81548152906001019060200180831161084c57829003601f168201915b50505050509080600701805461087e906117a0565b80601f01602080910402602001604051908101604052809291908181526020018280546108aa906117a0565b80156108f75780601f106108cc576101008083540402835291602001916108f7565b820191906000526020600020905b8154815290600101906020018083116108da57829003601f168201915b5050505050905088565b60008054905090565b60035481565b600033905060016005546109249190611801565b600581905550600554600660006005548152602001908152602001600020600001819055508060066000600554815260200190815260200160002060030160006101000a81548173ffffffffffffffffffffffffffffffffffffffff021916908373ffffffffffffffffffffffffffffffffffffffff1602179055508560066000600554815260200190815260200160002060040190805190602001906109cc92919061102b565b508460066000600554815260200190815260200160002060050190805190602001906109f992919061102b565b506040518060400160405280600781526020017f70656e64696e67000000000000000000000000000000000000000000000000008152506006600060055481526020019081526020016000206006019080519060200190610a5b92919061102b565b50816006600060055481526020019081526020016000206007019080519060200190610a8892919061102b565b5083600660006005548152602001908152602001600020600101819055508260066000600554815260200190815260200160002060020181905550505050505050565b6001600054610ada9190611801565b600081905550600033905080600260008373ffffffffffffffffffffffffffffffffffffffff1673ffffffffffffffffffffffffffffffffffffffff16815260200190815260200160002060010160006101000a81548173ffffffffffffffffffffffffffffffffffffffff021916908373ffffffffffffffffffffffffffffffffffffffff16021790555085600260008373ffffffffffffffffffffffffffffffffffffffff1673ffffffffffffffffffffffffffffffffffffffff1681526020019081526020016000206002019080519060200190610bbc92919061102b565b5084600260008373ffffffffffffffffffffffffffffffffffffffff1673ffffffffffffffffffffffffffffffffffffffff1681526020019081526020016000206003019080519060200190610c1392919061102b565b5083600260008373ffffffffffffffffffffffffffffffffffffffff1673ffffffffffffffffffffffffffffffffffffffff1681526020019081526020016000206004019080519060200190610c6a92919061102b565b5082600260008373ffffffffffffffffffffffffffffffffffffffff1673ffffffffffffffffffffffffffffffffffffffff1681526020019081526020016000206005019080519060200190610cc192919061102b565b5081600260008373ffffffffffffffffffffffffffffffffffffffff1673ffffffffffffffffffffffffffffffffffffffff1681526020019081526020016000206006019080519060200190610d1892919061102b565b50505050505050565b60026020528060005260406000206000915090508060000154908060010160009054906101000a900473ffffffffffffffffffffffffffffffffffffffff1690806002018054610d70906117a0565b80601f0160208091040260200160405190810160405280929190818152602001828054610d9c906117a0565b8015610de95780601f10610dbe57610100808354040283529160200191610de9565b820191906000526020600020905b815481529060010190602001808311610dcc57829003601f168201915b505050505090806003018054610dfe906117a0565b80601f0160208091040260200160405190810160405280929190818152602001828054610e2a906117a0565b8015610e775780601f10610e4c57610100808354040283529160200191610e77565b820191906000526020600020905b815481529060010190602001808311610e5a57829003601f168201915b505050505090806004018054610e8c906117a0565b80601f0160208091040260200160405190810160405280929190818152602001828054610eb8906117a0565b8015610f055780601f10610eda57610100808354040283529160200191610f05565b820191906000526020600020905b815481529060010190602001808311610ee857829003601f168201915b505050505090806005018054610f1a906117a0565b80601f0160208091040260200160405190810160405280929190818152602001828054610f46906117a0565b8015610f935780601f10610f6857610100808354040283529160200191610f93565b820191906000526020600020905b815481529060010190602001808311610f7657829003601f168201915b505050505090806006018054610fa8906117a0565b80601f0160208091040260200160405190810160405280929190818152602001828054610fd4906117a0565b80156110215780601f10610ff657610100808354040283529160200191611021565b820191906000526020600020905b81548152906001019060200180831161100457829003601f168201915b5050505050905087565b828054611037906117a0565b90600052602060002090601f01602090048101928261105957600085556110a0565b82601f1061107257805160ff19168380011785556110a0565b828001600101855582156110a0579182015b8281111561109f578251825591602001919060010190611084565b5b5090506110ad91906110b1565b5090565b5b808211156110ca5760008160009055506001016110b2565b5090565b6000819050919050565b6110e1816110ce565b82525050565b60006020820190506110fc60008301846110d8565b92915050565b6000604051905090565b600080fd5b600080fd5b61111f816110ce565b811461112a57600080fd5b50565b60008135905061113c81611116565b92915050565b6000602082840312156111585761115761110c565b5b60006111668482850161112d565b91505092915050565b600073ffffffffffffffffffffffffffffffffffffffff82169050919050565b600061119a8261116f565b9050919050565b6111aa8161118f565b82525050565b600081519050919050565b600082825260208201905092915050565b60005b838110156111ea5780820151818401526020810190506111cf565b838111156111f9576000848401525b50505050565b6000601f19601f8301169050919050565b600061121b826111b0565b61122581856111bb565b93506112358185602086016111cc565b61123e816111ff565b840191505092915050565b600060808201905061125e60008301876110d8565b61126b60208301866111a1565b818103604083015261127d8185611210565b905081810360608301526112918184611210565b905095945050505050565b6112a58161118f565b81146112b057600080fd5b50565b6000813590506112c28161129c565b92915050565b6000602082840312156112de576112dd61110c565b5b60006112ec848285016112b3565b91505092915050565b6000606082019050818103600083015261130f8186611210565b905061131e60208301856111a1565b81810360408301526113308184611210565b9050949350505050565b600061010082019050611350600083018b6110d8565b61135d602083018a6110d8565b61136a60408301896110d8565b61137760608301886111a1565b81810360808301526113898187611210565b905081810360a083015261139d8186611210565b905081810360c08301526113b18185611210565b905081810360e08301526113c58184611210565b90509998505050505050505050565b600080fd5b600080fd5b7f4e487b7100000000000000000000000000000000000000000000000000000000600052604160045260246000fd5b611416826111ff565b810181811067ffffffffffffffff82111715611435576114346113de565b5b80604052505050565b6000611448611102565b9050611454828261140d565b919050565b600067ffffffffffffffff821115611474576114736113de565b5b61147d826111ff565b9050602081019050919050565b82818337600083830152505050565b60006114ac6114a784611459565b61143e565b9050828152602081018484840111156114c8576114c76113d9565b5b6114d384828561148a565b509392505050565b600082601f8301126114f0576114ef6113d4565b5b8135611500848260208601611499565b91505092915050565b600080600080600060a086880312156115255761152461110c565b5b600086013567ffffffffffffffff81111561154357611542611111565b5b61154f888289016114db565b955050602086013567ffffffffffffffff8111156115705761156f611111565b5b61157c888289016114db565b945050604061158d8882890161112d565b935050606061159e8882890161112d565b925050608086013567ffffffffffffffff8111156115bf576115be611111565b5b6115cb888289016114db565b9150509295509295909350565b600080600080600060a086880312156115f4576115f361110c565b5b600086013567ffffffffffffffff81111561161257611611611111565b5b61161e888289016114db565b955050602086013567ffffffffffffffff81111561163f5761163e611111565b5b61164b888289016114db565b945050604086013567ffffffffffffffff81111561166c5761166b611111565b5b611678888289016114db565b935050606086013567ffffffffffffffff81111561169957611698611111565b5b6116a5888289016114db565b925050608086013567ffffffffffffffff8111156116c6576116c5611111565b5b6116d2888289016114db565b9150509295509295909350565b600060e0820190506116f4600083018a6110d8565b61170160208301896111a1565b81810360408301526117138188611210565b905081810360608301526117278187611210565b9050818103608083015261173b8186611210565b905081810360a083015261174f8185611210565b905081810360c08301526117638184611210565b905098975050505050505050565b7f4e487b7100000000000000000000000000000000000000000000000000000000600052602260045260246000fd5b600060028204905060018216806117b857607f821691505b602082108114156117cc576117cb611771565b5b50919050565b7f4e487b7100000000000000000000000000000000000000000000000000000000600052601160045260246000fd5b600061180c826110ce565b9150611817836110ce565b9250827fffffffffffffffffffffffffffffffffffffffffffffffffffffffffffffffff0382111561184c5761184b6117d2565b5b82820190509291505056fea2646970667358221220bbb6f13f4d0ba5b3102930534e4e4d0d5a204831997239926f8b900ffc65b91a64736f6c63430008090033",
  "immutableReferences": {},
  "source": "// SPDX-License-Identifier: MIT\npragma solidity >=0.4.22 <0.9.0;\n\ncontract Etendering {\n    \n    \n    \n  \n   struct Company {\n         uint id ;\n         address add;\n         string name;\n         string location;\n         string email;\n         string  businessType;\n         string tin;\n         \n         \n    }\n\n    \n    uint public companies ;\n    uint [] public cids ;\n    mapping (address=>Company) public Companies ;\n\n   \n    function countCompanies()public view returns(uint  compamies){\n        \n        return companies;\n        \n    }\n    \n    function createCompany(string memory cname,string memory location,string memory email,string memory businessType,string memory tin) public {\n\n        companies = companies + 1;\n\n        address  cid = msg.sender;\n        Companies[cid].add=cid;\n        Companies[cid].name=cname;\n        Companies[cid].location=location;\n        Companies[cid].email=email;\n        Companies[cid].businessType=businessType;\n        Companies[cid].tin=tin;\n        \n       \n    \n    \n    }\n    \n    // function Company(address _add) public view returns (string memory _name,address memory _companyid,string  memory _location,string memory _businessType){\n        \n        \n        \n    //     return (Companies[_add].name,Companies[_add].add,Companies[_add].location,Companies[_add].email,Companies[_add].businessType);\n        \n        \n        \n    // }\n    \n    \n    function getCompany(address _address) public view returns(string memory name,address _companyid,string memory location){\n        \n        \n        return(Companies[_address].name,Companies[_address].add,Companies[_address].location);\n    \n    }\n    \n\n    \n    //This is the tender section of the contract\n\n     struct Tender {\n      uint id;\n      uint openingDate;\n      uint clossingDate;\n      address company_Address;\n      string title ;\n      string description;\n      string status;\n      string link ;\n    \n    }\n    \n    uint public tenders ;\n    //All tender id will be stored here for proper looping\n    uint [] public tids ;\n    //tender ids\n    uint tid;\n    mapping ( uint => Tender) public Tenders ;\n\n     \n        \n    function newTender(string memory title,string memory description,uint256 openingdate,uint clossingdate,string memory documents) public{\n        \n      //add new object in the mapping\n      address manager = msg.sender ;\n       tid=tid+1;\n       Tenders[tid].id=tid;\n       Tenders[tid].company_Address=manager;\n       Tenders[tid].title=title;\n       Tenders[tid].description=description;\n       Tenders[tid].status=\"pending\";\n       Tenders[tid].link= documents;\n       Tenders[tid].openingDate=openingdate;\n       Tenders[tid].clossingDate= clossingdate;\n    }\n\n    function getTender(uint id) public  view returns(uint _tid,address _manager,string memory title,string memory description){\n\n        return (Tenders[id].id,Tenders[id].company_Address,Tenders[id].title,Tenders[id].description);\n\n    }\n\n\n    //Bidding section of the contract\n\n\n    \n\n\n\n \n}\n",
  "sourcePath": "/home/egovridc/Desktop/e-tendering/contracts/Migrations.sol",
  "compiler": {
    "name": "solc",
    "version": "0.8.9+commit.e5eed63a.Emscripten.clang"
  },
  "schemaVersion": "3.4.3",
  "updatedAt": "2021-11-01T13:32:59.671Z",
  "networkType": "ethereum",
  "devdoc": {
    "kind": "dev",
    "methods": {},
    "version": 1
  },
  "userdoc": {
    "kind": "user",
    "methods": {},
    "version": 1
  }
}